{
  "abi": [
    {
      "inputs": [
        {
          "internalType": "uint64",
          "name": "subscriptionId",
          "type": "uint64"
        },
        {
          "internalType": "address",
          "name": "vrfCoordinator",
          "type": "address"
        },
        {
          "internalType": "address",
          "name": "keeperAddr",
          "type": "address"
        }
      ],
      "stateMutability": "nonpayable",
      "type": "constructor"
    },
    {
      "inputs": [
        {
          "internalType": "address",
          "name": "have",
          "type": "address"
        },
        {
          "internalType": "address",
          "name": "want",
          "type": "address"
        }
      ],
      "name": "OnlyCoordinatorCanFulfill",
      "type": "error"
    },
    {
      "anonymous": false,
      "inputs": [
        {
          "indexed": false,
          "internalType": "uint256",
          "name": "numOfRound",
          "type": "uint256"
        }
      ],
      "name": "CountdownStarted",
      "type": "event"
    },
    {
      "anonymous": false,
      "inputs": [
        {
          "indexed": true,
          "internalType": "address",
          "name": "previousOwner",
          "type": "address"
        },
        {
          "indexed": true,
          "internalType": "address",
          "name": "newOwner",
          "type": "address"
        }
      ],
      "name": "OwnershipTransferred",
      "type": "event"
    },
    {
      "anonymous": false,
      "inputs": [
        {
          "indexed": false,
          "internalType": "uint256",
          "name": "newAmount",
          "type": "uint256"
        }
      ],
      "name": "PlatformFeeChanged",
      "type": "event"
    },
    {
      "anonymous": false,
      "inputs": [
        {
          "indexed": false,
          "internalType": "uint256",
          "name": "requestId",
          "type": "uint256"
        }
      ],
      "name": "RandomNumberFulfilled",
      "type": "event"
    },
    {
      "anonymous": false,
      "inputs": [
        {
          "indexed": false,
          "internalType": "uint256",
          "name": "requestId",
          "type": "uint256"
        }
      ],
      "name": "RequestForRandomNumberSent",
      "type": "event"
    },
    {
      "anonymous": false,
      "inputs": [
        {
          "indexed": false,
          "internalType": "uint256",
          "name": "numOfRound",
          "type": "uint256"
        }
      ],
      "name": "RoundEnded",
      "type": "event"
    },
    {
      "anonymous": false,
      "inputs": [
        {
          "indexed": false,
          "internalType": "uint256",
          "name": "numOfRound",
          "type": "uint256"
        }
      ],
      "name": "RoundStarted",
      "type": "event"
    },
    {
      "anonymous": false,
      "inputs": [
        {
          "indexed": true,
          "internalType": "address",
          "name": "player",
          "type": "address"
        },
        {
          "indexed": false,
          "internalType": "uint256",
          "name": "numOfRound",
          "type": "uint256"
        },
        {
          "indexed": false,
          "internalType": "uint256[6]",
          "name": "combination",
          "type": "uint256[6]"
        }
      ],
      "name": "TicketBought",
      "type": "event"
    },
    {
      "anonymous": false,
      "inputs": [
        {
          "indexed": true,
          "internalType": "address",
          "name": "player",
          "type": "address"
        },
        {
          "indexed": false,
          "internalType": "uint256",
          "name": "numOfRound",
          "type": "uint256"
        },
        {
          "indexed": false,
          "internalType": "uint256",
          "name": "indexOfTicket",
          "type": "uint256"
        },
        {
          "indexed": false,
          "internalType": "uint256",
          "name": "amount",
          "type": "uint256"
        }
      ],
      "name": "TicketCashedOut",
      "type": "event"
    },
    {
      "inputs": [
        {
          "internalType": "bytes",
          "name": "",
          "type": "bytes"
        }
      ],
      "name": "checkUpkeep",
      "outputs": [
        {
          "internalType": "bool",
          "name": "upkeepNeeded",
          "type": "bool"
        },
        {
          "internalType": "bytes",
          "name": "performData",
          "type": "bytes"
        }
      ],
      "stateMutability": "view",
      "type": "function"
    },
    {
      "inputs": [
        {
          "internalType": "uint256",
          "name": "",
          "type": "uint256"
        }
      ],
      "name": "drawnNumbers",
      "outputs": [
        {
          "internalType": "uint256",
          "name": "",
          "type": "uint256"
        }
      ],
      "stateMutability": "view",
      "type": "function"
    },
    {
      "inputs": [],
      "name": "endLotteryForLocalTesting",
      "outputs": [],
      "stateMutability": "nonpayable",
      "type": "function"
    },
    {
      "inputs": [],
      "name": "endRound",
      "outputs": [],
      "stateMutability": "nonpayable",
      "type": "function"
    },
    {
      "inputs": [
        {
          "internalType": "uint256",
          "name": "round",
          "type": "uint256"
        },
        {
          "internalType": "uint256",
          "name": "indexOfTicket",
          "type": "uint256"
        }
      ],
      "name": "getPayoutForTicket",
      "outputs": [],
      "stateMutability": "nonpayable",
      "type": "function"
    },
    {
      "inputs": [
        {
          "internalType": "uint256",
          "name": "n",
          "type": "uint256"
        }
      ],
      "name": "getTicketsForRound",
      "outputs": [
        {
          "components": [
            {
              "internalType": "uint256[6]",
              "name": "combination",
              "type": "uint256[6]"
            },
            {
              "internalType": "uint256",
              "name": "bet",
              "type": "uint256"
            }
          ],
          "internalType": "struct ILuckySix.Ticket[]",
          "name": "",
          "type": "tuple[]"
        }
      ],
      "stateMutability": "view",
      "type": "function"
    },
    {
      "inputs": [],
      "name": "lastRequestId",
      "outputs": [
        {
          "internalType": "uint256",
          "name": "",
          "type": "uint256"
        }
      ],
      "stateMutability": "view",
      "type": "function"
    },
    {
      "inputs": [],
      "name": "lotteryState",
      "outputs": [
        {
          "internalType": "enum ILuckySix.LOTTERY_STATE",
          "name": "",
          "type": "uint8"
        }
      ],
      "stateMutability": "view",
      "type": "function"
    },
    {
      "inputs": [],
      "name": "openRound",
      "outputs": [],
      "stateMutability": "nonpayable",
      "type": "function"
    },
    {
      "inputs": [],
      "name": "owner",
      "outputs": [
        {
          "internalType": "address",
          "name": "",
          "type": "address"
        }
      ],
      "stateMutability": "view",
      "type": "function"
    },
    {
      "inputs": [
        {
          "internalType": "bytes",
          "name": "",
          "type": "bytes"
        }
      ],
      "name": "performUpkeep",
      "outputs": [],
      "stateMutability": "nonpayable",
      "type": "function"
    },
    {
      "inputs": [],
      "name": "platformBalance",
      "outputs": [
        {
          "internalType": "uint256",
          "name": "",
          "type": "uint256"
        }
      ],
      "stateMutability": "view",
      "type": "function"
    },
    {
      "inputs": [],
      "name": "platformFee",
      "outputs": [
        {
          "internalType": "uint256",
          "name": "",
          "type": "uint256"
        }
      ],
      "stateMutability": "view",
      "type": "function"
    },
    {
      "inputs": [
        {
          "internalType": "uint256[6]",
          "name": "combination",
          "type": "uint256[6]"
        }
      ],
      "name": "playTicket",
      "outputs": [],
      "stateMutability": "payable",
      "type": "function"
    },
    {
      "inputs": [
        {
          "internalType": "uint256",
          "name": "requestId",
          "type": "uint256"
        },
        {
          "internalType": "uint256[]",
          "name": "randomWords",
          "type": "uint256[]"
        }
      ],
      "name": "rawFulfillRandomWords",
      "outputs": [],
      "stateMutability": "nonpayable",
      "type": "function"
    },
    {
      "inputs": [],
      "name": "renounceOwnership",
      "outputs": [],
      "stateMutability": "nonpayable",
      "type": "function"
    },
    {
      "inputs": [],
      "name": "roundInfo",
      "outputs": [
        {
          "internalType": "uint256",
          "name": "numberOfRound",
          "type": "uint256"
        },
        {
          "internalType": "uint256",
          "name": "timeStarted",
          "type": "uint256"
        },
        {
          "internalType": "bool",
          "name": "isStarted",
          "type": "bool"
        }
      ],
      "stateMutability": "view",
      "type": "function"
    },
    {
      "inputs": [
        {
          "internalType": "address",
          "name": "newAddress",
          "type": "address"
        }
      ],
      "name": "setKeeperAddress",
      "outputs": [],
      "stateMutability": "nonpayable",
      "type": "function"
    },
    {
      "inputs": [
        {
          "internalType": "uint256",
          "name": "amount",
          "type": "uint256"
        }
      ],
      "name": "setPlatformFee",
      "outputs": [],
      "stateMutability": "nonpayable",
      "type": "function"
    },
    {
      "inputs": [
        {
          "internalType": "address",
          "name": "newOwner",
          "type": "address"
        }
      ],
      "name": "transferOwnership",
      "outputs": [],
      "stateMutability": "nonpayable",
      "type": "function"
    },
    {
      "inputs": [
        {
          "internalType": "uint256",
          "name": "n",
          "type": "uint256"
        }
      ],
      "name": "unpackResultForRound",
      "outputs": [
        {
          "internalType": "uint256[]",
          "name": "",
          "type": "uint256[]"
        }
      ],
      "stateMutability": "view",
      "type": "function"
    },
    {
      "inputs": [],
      "name": "withdrawPlatformFee",
      "outputs": [],
      "stateMutability": "payable",
      "type": "function"
    }
  ],
  "bytecode": {
    "object": "0x662386f26fc1000060049081557f474e34a077df58807dbe9c96d3c009b23b3c6d0cce433e59bbf5b34f823bc56c6009908155600a805463ffffffff1916620186a0178155610500604052600060a081815260c082905260e08290526101008290526101209190915261271061014052611d4c61016052611388610180526109c46101a0526103e86101c0526101f46101e05261012c6102005260c861022052609661024052606461026052605a6102805260506102a05260466102c052603c6102e052603261030052602861032052601e61034052601961036052601461038052600f6103a0526103c0919091526103e0919091526008610400526007610420526006610440526005610460526104809190915260036104a05260026104c05260016104e0526200013690600d9060236200024a565b503480156200014457600080fd5b5060405162001f3f38038062001f3f8339810160408190526200016791620002d4565b6001600160a01b0382166080526200017f33620001fa565b600780546001600160401b0394909416600160a01b026001600160e01b03199094166001600160a01b039384161793909317909255600a8054929091166401000000000260ff60c01b1916600160201b600160c81b031990921691909117600160c21b17905560006001556003805460ff191690556200032b565b600080546001600160a01b038381166001600160a01b0319831681178455604051919092169283917f8be0079c531659141344cd1fd0a4f28419497f9722a3daafe3b4186f6b6457e09190a35050565b8280548282559060005260206000209081019282156200028e579160200282015b828111156200028e578251829061ffff169055916020019190600101906200026b565b506200029c929150620002a0565b5090565b5b808211156200029c5760008155600101620002a1565b80516001600160a01b0381168114620002cf57600080fd5b919050565b600080600060608486031215620002ea57600080fd5b83516001600160401b03811681146200030257600080fd5b92506200031260208501620002b7565b91506200032260408501620002b7565b90509250925092565b608051611bf16200034e6000396000818161045701526104990152611bf16000f3fe6080604052600436106101355760003560e01c8063715018a6116100ab578063cace12e61161006f578063cace12e614610332578063d7173a9d14610371578063d8f56ddb14610391578063e562dfd9146103be578063f2fde38b146103d3578063fc2a88c3146103f357600080fd5b8063715018a614610293578063749aa2d9146102a8578063864d49c3146102bd5780638da5cb5b146102ea578063a5dd46861461031257600080fd5b80633ad94fef116100fd5780633ad94fef146101da57806341ade721146101ed5780634585e33b1461020257806362a5dbbc146102225780636939864b146102375780636e04ff0d1461026557600080fd5b806312e8e2c31461013a5780631fe543e31461015c578063202cefd51461017c57806326232a2e146101845780632f877497146101ad575b600080fd5b34801561014657600080fd5b5061015a6101553660046116df565b610409565b005b34801561016857600080fd5b5061015a61017736600461173f565b61044c565b61015a6104d9565b34801561019057600080fd5b5061019a60045481565b6040519081526020015b60405180910390f35b3480156101b957600080fd5b506101cd6101c83660046116df565b610512565b6040516101a491906117f1565b61015a6101e8366004611864565b6105bd565b3480156101f957600080fd5b5061015a61080a565b34801561020e57600080fd5b5061015a61021d3660046118e2565b610829565b34801561022e57600080fd5b5061019a6108ec565b34801561024357600080fd5b50600a5461025890600160c01b900460ff1681565b6040516101a4919061196a565b34801561027157600080fd5b506102856102803660046118e2565b610901565b6040516101a4929190611992565b34801561029f57600080fd5b5061015a6109ac565b3480156102b457600080fd5b5061015a6109be565b3480156102c957600080fd5b506102dd6102d83660046116df565b610ac0565b6040516101a491906119ea565b3480156102f657600080fd5b506000546040516001600160a01b0390911681526020016101a4565b34801561031e57600080fd5b5061015a61032d366004611a2e565b610b64565b34801561033e57600080fd5b5060015460025460035461035492919060ff1683565b6040805193845260208401929092521515908201526060016101a4565b34801561037d57600080fd5b5061015a61038c366004611a5e565b610b9a565b34801561039d57600080fd5b5061019a6103ac3660046116df565b600c6020526000908152604090205481565b3480156103ca57600080fd5b5061015a610e6b565b3480156103df57600080fd5b5061015a6103ee366004611a2e565b610f5b565b3480156103ff57600080fd5b5061019a60085481565b610411610fd1565b60048190556040518181527f72b05fd7e6e407beabebd17ae121166880efdc19a2a9b08063eafc0c001e470a9060200160405180910390a150565b336001600160a01b037f000000000000000000000000000000000000000000000000000000000000000016146104cb5760405163073e64fd60e21b81523360048201526001600160a01b037f00000000000000000000000000000000000000000000000000000000000000001660248201526044015b60405180910390fd5b6104d5828261102b565b5050565b6104e1610fd1565b6000600481905560405133916108fc9181818181818888f1935050505015801561050f573d6000803e3d6000fd5b50565b336000908152600b602090815260408083208484528252808320805482518185028101850190935280835260609492939192909184015b828210156105b257600084815260209020604080516101008101825291600785020190829081018260068282826020028201915b81548152602001906001019080831161057d575050505050815260200160068201548152505081526020019060010190610549565b505050509050919050565b6000600a54600160c01b900460ff1660048111156105dd576105dd611954565b148061060657506001600a54600160c01b900460ff16600481111561060457610604611954565b145b6106465760405162461bcd60e51b81526020600482015260116024820152704c6f7474657279206e6f74206f70656e2160781b60448201526064016104c2565b61064f816110d4565b6106945760405162461bcd60e51b81526020600482015260166024820152752737ba103b30b634b21031b7b6b134b730ba34b7b71760511b60448201526064016104c2565b60045434116106d95760405162461bcd60e51b81526020600482015260116024820152702737ba1032b737bab3b410333ab732399760791b60448201526064016104c2565b60035460ff1661073e57600a805460ff60c01b1916600160c01b1790556003805460ff19166001908117909155426002555460408051918252517ffc3b042904f70a7b1cfdf33071c9121ab1b1fb1a7090321d72cb3a1867bd54ae9181900360200190a15b336000908152600b60209081526040808320600154845282529182902082518084019093528383526004549092918201906107799034611a96565b90528154600181018355600092835260209092208151919260070201906107a3908290600661166d565b50602082015181600601555050600454600660008282546107c49190611aa9565b909155505060015460405133917fda7f2ea9c9ff6af4c6ba3baf29fa9d42b44ca4e43d430dd648e05638a06de824916107ff91908590611abc565b60405180910390a250565b600a805460ff60c01b1916600360c01b17905561082760456111aa565b565b600a5464010000000090046001600160a01b0316331461084857600080fd5b6004600a54600160c01b900460ff16600481111561086857610868611954565b03610875576104d5610e6b565b6001600a54600160c01b900460ff16600481111561089557610895611954565b1480156108af57506002546108ac90600190611aa9565b42115b156108bc576104d56109be565b6003600a54600160c01b900460ff1660048111156108dc576108dc611954565b036104d5576104d56005546111aa565b6000600654476108fc9190611a96565b905090565b600060606004600a54600160c01b900460ff16600481111561092557610925611954565b0361093357600191506109a5565b6001600a54600160c01b900460ff16600481111561095357610953611954565b14801561096d575060025461096a90600190611aa9565b42115b1561097b57600191506109a5565b6003600a54600160c01b900460ff16600481111561099b5761099b611954565b036109a557600191505b9250929050565b6109b4610fd1565b6108276000611447565b600a5464010000000090046001600160a01b031633146109f05760405162461bcd60e51b81526004016104c290611af4565b6001600a54600160c01b900460ff166004811115610a1057610a10611954565b14610a4a5760405162461bcd60e51b815260206004820152600a60248201526943616e277420656e642160b01b60448201526064016104c2565b600254610a5990600190611aa9565b4211610aa05760405162461bcd60e51b81526020600482015260166024820152752637ba3a32b93c903430b9903737ba1032b73232b21760511b60448201526064016104c2565b600a805460ff60c01b1916600160c11b179055610abb611497565b600855565b60408051602380825261048082019092526060916000919060208201610460803683370190505090506000610af760016023611a96565b6000858152600c60205260408120549192505b6023811015610b5a57603f610b20826006611b23565b83901c1684610b2f8386611a96565b81518110610b3f57610b3f611b3a565b6020908102919091010152610b5381611b50565b9050610b0a565b5091949350505050565b610b6c610fd1565b600a80546001600160a01b0390921664010000000002640100000000600160c01b0319909216919091179055565b336000908152600b602090815260408083208584529091528120805483908110610bc657610bc6611b3a565b90600052602060002090600702016006015411610c255760405162461bcd60e51b815260206004820152601a60248201527f5469636b657420616c726561647920636173686564206f75742e00000000000060448201526064016104c2565b6001548210610c6e5760405162461bcd60e51b815260206004820152601560248201527424b73b30b634b2103937bab73210373ab6b132b91760591b60448201526064016104c2565b336000908152600b6020908152604080832085845290915281208054610ce191859185908110610ca057610ca0611b3a565b600091825260209091206040805160c0810191829052926007029091019060069082845b815481526020019060010190808311610cc45750505050506115af565b9050610cef60016023611a96565b8110610d315760405162461bcd60e51b81526020600482015260116024820152702a34b1b5b2ba103737ba103b30b634b21760791b60448201526064016104c2565b336000908152600b602090815260408083208684529091528120805484908110610d5d57610d5d611b3a565b906000526020600020906007020160060154600d8381548110610d8257610d82611b3a565b9060005260206000200154610d979190611b23565b90506000610da36108ec565b905080821115610db1578091505b604051339083156108fc029084906000818181858888f19350505050158015610dde573d6000803e3d6000fd5b50336000908152600b602090815260408083208884529091528120805486908110610e0b57610e0b611b3a565b60009182526020918290206006600790920201019190915560408051878152918201869052810183905233907fc5ab8a798b5471330f26e635df8056a23c9aba969ad9778ec3d5a2e5290addc39060600160405180910390a25050505050565b600a5464010000000090046001600160a01b03163314610e9d5760405162461bcd60e51b81526004016104c290611af4565b6004600a54600160c01b900460ff166004811115610ebd57610ebd611954565b14610ef95760405162461bcd60e51b815260206004820152600c60248201526b43616e27742073746172742160a01b60448201526064016104c2565b600a805460ff60c01b191690556003805460ff19169055600180547f33a701182892fd888ed152ca2ac23771a32e814469b7cd255965471e1af3a6599190600090610f4390611b50565b918290555060405190815260200160405180910390a1565b610f63610fd1565b6001600160a01b038116610fc85760405162461bcd60e51b815260206004820152602660248201527f4f776e61626c653a206e6577206f776e657220697320746865207a65726f206160448201526564647265737360d01b60648201526084016104c2565b61050f81611447565b6000546001600160a01b031633146108275760405162461bcd60e51b815260206004820181905260248201527f4f776e61626c653a2063616c6c6572206973206e6f7420746865206f776e657260448201526064016104c2565b6002600a54600160c01b900460ff16600481111561104b5761104b611954565b1461105557600080fd5b816008541461106357600080fd5b600a805460ff60c01b1916600360c01b1790558051819060009061108957611089611b3a565b60200260200101516005819055507f0c85479aad1769b7b33c04832223c1c3d4a88aaed2f73cf7732fb6c5a325ae72826040516110c891815260200190565b60405180910390a15050565b6000805b60068110156111a15760018382600681106110f5576110f5611b3a565b6020020151108061111c5750603083826006811061111557611115611b3a565b6020020151115b1561112a5750600092915050565b6000611137826001611aa9565b90505b60068110156111905783816006811061115557611155611b3a565b602002015184836006811061116c5761116c611b3a565b602002015103611180575060009392505050565b61118981611b50565b905061113a565b5061119a81611b50565b90506110d8565b50600192915050565b6003600a54600160c01b900460ff1660048111156111ca576111ca611954565b146112175760405162461bcd60e51b815260206004820152601960248201527f52616e646f6d6e657373206e6f742066756c66696c6c65642e0000000000000060448201526064016104c2565b61121f6116ab565b60005b603081101561125d57611236816001611aa9565b82826030811061124857611248611b3a565b602002015261125681611b50565b9050611222565b506040805160238082526104808201909252600091602082016104608036833701905050905060005b60238110156112ef5760408051426020820152908101859052606081018290526080016040516020818303038152906040528051906020012060001c8282815181106112d4576112d4611b3a565b60209081029190910101526112e881611b50565b9050611286565b5060006112fe60016030611a96565b90506000805b60238110156113d45760008385838151811061132257611322611b3a565b60200260200101516113349190611b69565b9050600086856030811061134a5761134a611b3a565b6020020151905086826030811061136357611363611b3a565b602002015187866030811061137a5761137a611b3a565b60200201528087836030811061139257611392611b3a565b602002015286856113a281611b8b565b9650603081106113b4576113b4611b3a565b60200201519390931760061b92506113cd905081611b50565b9050611304565b506001546000908152600c6020526040902060069190911c90819055600a80546004919060ff60c01b1916600160c01b8302179055506001546040519081527faa97d4a7b3afec5f55c25ca8593dde6929d4455fad650a16fa4334004293a6189060200160405180910390a15050505050565b600080546001600160a01b038381166001600160a01b0319831681178455604051919092169283917f8be0079c531659141344cd1fd0a4f28419497f9722a3daafe3b4186f6b6457e09190a35050565b600a5460009064010000000090046001600160a01b031633146114cc5760405162461bcd60e51b81526004016104c290611af4565b600754600954600a546040516305d3b1d360e41b81526004810192909252600160a01b830467ffffffffffffffff1660248301526003604483015263ffffffff166064820152600160848201526001600160a01b0390911690635d3b1d309060a4016020604051808303816000875af115801561154d573d6000803e3d6000fd5b505050506040513d601f19601f820116820180604052508101906115719190611ba2565b90507f99e3fd401695ff5901fc7d7dbbb6926a0070e4045c593734fcd81a663d818c98816040516115a491815260200190565b60405180910390a190565b6000806115bb84610ac0565b90506000600019815b600681101561164f5760005b845181101561163e578481815181106115eb576115eb611b3a565b602002602001015187836006811061160557611605611b3a565b60200201510361162e578361161981611b50565b945050828113611629578261162b565b805b92505b61163781611b50565b90506115d0565b5061164881611b50565b90506115c4565b508160061461165f576064611661565b805b93505050505b92915050565b826006810192821561169b579160200282015b8281111561169b578251825591602001919060010190611680565b506116a79291506116ca565b5090565b6040518061060001604052806030906020820280368337509192915050565b5b808211156116a757600081556001016116cb565b6000602082840312156116f157600080fd5b5035919050565b634e487b7160e01b600052604160045260246000fd5b604051601f8201601f1916810167ffffffffffffffff81118282101715611737576117376116f8565b604052919050565b6000806040838503121561175257600080fd5b8235915060208084013567ffffffffffffffff8082111561177257600080fd5b818601915086601f83011261178657600080fd5b813581811115611798576117986116f8565b8060051b91506117a984830161170e565b81815291830184019184810190898411156117c357600080fd5b938501935b838510156117e1578435825293850193908501906117c8565b8096505050505050509250929050565b602080825282518282018190526000919084820190604085019084805b82811015611857578451805185845b600681101561183a5782518252918901919089019060010161181d565b50505086015160c08501529385019360e09093019260010161180e565b5091979650505050505050565b600060c0828403121561187657600080fd5b82601f83011261188557600080fd5b60405160c0810181811067ffffffffffffffff821117156118a8576118a86116f8565b6040528060c08401858111156118bd57600080fd5b845b818110156118d75780358352602092830192016118bf565b509195945050505050565b600080602083850312156118f557600080fd5b823567ffffffffffffffff8082111561190d57600080fd5b818501915085601f83011261192157600080fd5b81358181111561193057600080fd5b86602082850101111561194257600080fd5b60209290920196919550909350505050565b634e487b7160e01b600052602160045260246000fd5b602081016005831061198c57634e487b7160e01b600052602160045260246000fd5b91905290565b821515815260006020604081840152835180604085015260005b818110156119c8578581018301518582016060015282016119ac565b506000606082860101526060601f19601f830116850101925050509392505050565b6020808252825182820181905260009190848201906040850190845b81811015611a2257835183529284019291840191600101611a06565b50909695505050505050565b600060208284031215611a4057600080fd5b81356001600160a01b0381168114611a5757600080fd5b9392505050565b60008060408385031215611a7157600080fd5b50508035926020909101359150565b634e487b7160e01b600052601160045260246000fd5b8181038181111561166757611667611a80565b8082018082111561166757611667611a80565b82815260e0810160208083018460005b6006811015611ae957815183529183019190830190600101611acc565b505050509392505050565b60208082526015908201527421b0b63632b91034b9903737ba1035b2b2b832b91760591b604082015260600190565b808202811582820484141761166757611667611a80565b634e487b7160e01b600052603260045260246000fd5b600060018201611b6257611b62611a80565b5060010190565b600082611b8657634e487b7160e01b600052601260045260246000fd5b500690565b600081611b9a57611b9a611a80565b506000190190565b600060208284031215611bb457600080fd5b505191905056fea26469706673582212200895d7ff87ea33d6d85be123c26416627711d9c42b62fe6647979aeee8178fa064736f6c63430008130033",
    "linkReferences": {}
  },
  "methodIdentifiers": {
    "checkUpkeep(bytes)": "6e04ff0d",
    "drawnNumbers(uint256)": "d8f56ddb",
    "endLotteryForLocalTesting()": "41ade721",
    "endRound()": "749aa2d9",
    "getPayoutForTicket(uint256,uint256)": "d7173a9d",
    "getTicketsForRound(uint256)": "2f877497",
    "lastRequestId()": "fc2a88c3",
    "lotteryState()": "6939864b",
    "openRound()": "e562dfd9",
    "owner()": "8da5cb5b",
    "performUpkeep(bytes)": "4585e33b",
    "platformBalance()": "62a5dbbc",
    "platformFee()": "26232a2e",
    "playTicket(uint256[6])": "3ad94fef",
    "rawFulfillRandomWords(uint256,uint256[])": "1fe543e3",
    "renounceOwnership()": "715018a6",
    "roundInfo()": "cace12e6",
    "setKeeperAddress(address)": "a5dd4686",
    "setPlatformFee(uint256)": "12e8e2c3",
    "transferOwnership(address)": "f2fde38b",
    "unpackResultForRound(uint256)": "864d49c3",
    "withdrawPlatformFee()": "202cefd5"
  },
  "id": 24
}